:02000000382A9C
:06000600000000000800EC
:10000C000F3083120313FC004730FD00FD0B0C284E
:0A001C00FC0B0C2800000000080097
:0E002600213083120313FD00FD0B1728080084
:1000340083120313C21B2028861321288617421B10
:100044002528061326280617C21A2A2886122B28C2
:100054008616421A2F280612302806162F1834281E
:10006400861435288610861503208611C2193C286B
:1000740086133D288617421941280613422806177D
:10008400C218462886124728861642184B2806129C
:100094004C2806162F1850288614512886108615C9
:1000A400032086112F1C58280620592813200800E5
:1000B40083120313F8010830FC00700DF80D740866
:1000C400F80203186728F8070310F00DFC0B5F28EB
:0200D400080022
:0E00D600831203132E088A002D0882000800F2
:1000E40083120313C0010330400203188028400820
:1000F4003F07840020308000C00A752840083F076D
:1001040084008001C00340083F07C1000A30F400A6
:100114003E08F0005A207808F0003030F00741081B
:100124008400700880000A30F4003E08F0005A2071
:100134007008BE007008003A031DA128A328C0035C
:040144008528080002
:10014800831203132F103E08C2001A202F14080030
:100158000E3083120313FD00FD0BB02800000800C9
:10016800C628803083120313B600D928C030B600E1
:10017800D9289430B600D928D430B600D928803090
:10018800B600D928831203133608013A0319B52893
:100198003608023A0319BA283608033A0319BD2863
:1001A8003608043A0319C028C3283703F000360874
:1001B800F0077008B6007008C2001A202F10B901A5
:1001C80039083807840000080319F2283908380765
:1001D80084000008BE00A420B90AE4282F140800EF
:1001E80083120313B7013708360784000008031980
:1001F80005293708360784000008BE00A420B70A7E
:04020800F7280800CB
:10020C0083120313F801F9011030FC00710DF80D85
:10021C00F90D7408F8027508031C750FF902031820
:10022C001E297408F80775080318750FF9070310D1
:0A023C00F00DF10DFC0B0C29080079
:1002460083120313FB01FA01F9018030F800F10C67
:10025600F00C031C37297408F90775080318750F85
:10026600FA070318FB0A0310F01F3F297408FA0760
:1002760075080318750FFB07FB0CFA0CF90CF80C44
:10028600031C2A297B08F3007A08F2007908F1009A
:060296007808F0000800EA
:10029C006B208A110A128000840AAD0A0319AE0A77
:0802AC00F003031D4E290800B8
:1002B400831203139F01C0309F042809F0007008C3
:1002C40083169F051F179F1783123608F000F00D41
:1002D4007010F00D7010F00D701070089F041F1452
:1002E400AC201F151F1D7829000074291F101E083B
:1002F400F100F00183161E08F0040030F104080038
:1003040083120313BA01BB013608BC000030BC1BC6
:10031400FF30BD0080303606F0008030003A7002B5
:100324000318A129BA0A0319BB0A3608003CBC0009
:10033400BD01031CBD030130B61F0030BD073C08DE
:10034400BE003708BF0072200430B8000030B90086
:100354003908003C031DB0293808003C0318CB2998
:1003640038083707F20001303802F0000030031C6F
:10037400013E3902F1007008370784000008F000DC
:1003840072088400700880000130B802031CB903AD
:10039400AA2937088400203080003A083B04031956
:1003A400E929B801B9013808370784000008203A60
:1003B400031DE029B80A0319B90AD5290130B80286
:1003C400031CB9033808370784002D308000080067
:1003D40083160313861186100612861206138613DB
:1003E40083128611861086130613861206120620BF
:1003F400062006208616061686150320861106207A
:1004040086150320861106208615032086110620F2
:1004140006128615032086110620861503208611F0
:100424008612861786150320861106208613061663
:1004340086150320861106128615032086110620D0
:1004440086150320861106168615032086110620BC
:1004540006128615032086118617061786160616B9
:0C04640086150320861106202F140800C6
:10047000A222EA211530FB004B30FC00BE30FD000B
:10048000FD0B402AFC0B402AFB0B402A00000130E8
:10049000B6005A21F430F4000130F5002321FF307A
:1004A000F4000330F50006217008B0000130B600FA
:1004B0005A21F430F4000130F5002321FF30F4001C
:1004C0000330F50006217008B0000130B60001309D
:1004D000B7002030B800B4203008B6003130B70083
:1004E00082213130B600F4202930B600F420831682
:1004F000881383128817300886000B30FB002630E3
:10050000FC005D30FD00FD0B832AFC0B832AFB0BF6
:10051000832A000000000130C2001A20562A8F2AC8
:10054400203084000D3083120313F0009530AD0089
:080554000230AE004E21080048
:10052A00743465346D34703420343D3420340034EE
:02053A000F347C
:08053C00203443342E34003456
:02400E004A2F37
:00000001FF
