:020000003A289C
:100006001728FC3083120313F000F1013928603001
:10001600F0000030F1003928DA30F000F10139281B
:10002600F230F000F101392883120313003027065D
:10003600031D1F2800302606031904280030270652
:10004600031D27280130260603190A280030270633
:10005600031D2F280230260603190F280030270615
:0E006600031D3728033026060319132808004F
:100074008316031386010F30880083128601081645
:10008400881288130808A200A301A20CA213A20CD0
:10009400A2130330A205A3010030A3050030A3007E
:1000A40003300805A400A5010030A5050030A50013
:1000B4002208A6002308A700032083120313700854
:1000C4008600081288168230FC00DD30FD00FD0B2E
:1000D4006928FC0B6928000000002408A6002508F4
:1000E400A7000320831203137008860008168812E1
:1000F4008230FC00DD30FD00FD0B7E28FC0B7E28E9
:080104000000000044288528DA
:02400E004A2F37
:00000001FF
