:02000000F729DE
:10000800FF00030E8301B8000A08B7008A017008D0
:10001800A0000408A1008C1ED72841217008BD004B
:10002800BE0130303D02F1000030031C013E3E02AB
:10003800F2007108BD007208BE0000307206031D90
:10004800272801307106031D56280230C100B92146
:1000580070088312BF007108C0003F08B90040084B
:10006800BA003F08F0004008F1000530F400003005
:10007800F5001621FF30F4000330F5009C217008CC
:10008800BB007108BC003F08C400E22088160812B3
:100098003B08C1003C08C2004C21831203137008BE
:1000A8008600D72800303E06031D5C2802303D0636
:1000B800031D8B280330C100B92170088312BF00CB
:1000C8007108C0003F08B9004008BA003F08F000B6
:1000D8004008F1000530F4000030F5001621FF302B
:1000E800F4000330F5009C217008BB007108BC00C7
:1000F8003F08C400E220081688123B08C1003C08EB
:10010800C2004C218312031370088600D7280030E0
:100118003E06031D912803303D06031DD0280230FA
:10012800C100B9210530F4000030F5001621FF3078
:10013800F4000330F5009C217008BF007108C0006E
:100148000330C100B9210530F4000030F500162154
:10015800FF30F4000330F5009C213F08F007400809
:100168000318013EF1077008B9007108BA00700859
:10017800C400E2208817390886000630FB001330D7
:10018800FC00AD30FD00FD0BC728FC0BC728FB0B9E
:10019800C72800000000D728881388120812860193
:1001A8002330C100E1212008F0002108840037082D
:0C01B8008A00380E8300FF0E7F0E090045
:1001C400831603139818E8280000E22883124408D1
:0401D4009900080086
:0E01D800073083120313FD00FD0BF028080012
:0E01E6008312031336088A00350882000800D1
:1001F400F3208A110A128000840AB50A0319B60A88
:08020400F003031DFA280800B5
:10020C008316031398169030831298008316871761
:10021C00071383128C1E15291A08F0000F290800E9
:10022C0083120313FB01FA01F9018030F800F10C81
:10023C00F00C031C2A297408F90775080318750FAC
:10024C00FA070318FB0A0310F01F32297408FA0787
:10025C0075080318750FFB07FB0CFA0CF90CF80C5E
:10026C00031C1D297B08F3007A08F2007908F100C1
:06027C007808F000080004
:10028200831203131A08F100981C49291812181630
:060292007108F0000800F5
:100298006929FC3083120313F000F1019B296030B7
:1002A800F0000030F1009B29DA30F000F1019B29C1
:1002B800F230F000F1019B296630F0000030F100C7
:1002C8009B29B630F000F1019B29831203130030FB
:1002D8004206031D71290030410603194D290030DB
:1002E8004206031D792901304106031953290030BC
:1002F8004206031D8129023041060319582900309E
:100308004206031D89290330410603195C29003080
:100318004206031D91290430410603196029003063
:100328004206031D9929053041060319652908006D
:1003380083120313F801F9011030FC00710DF80D58
:10034800F90D7408F8027508031C750FF9020318F3
:10035800B4297408F80775080318750FF90703100E
:0A036800F00DF10DFC0BA2290800B6
:10037200831203139F01C0309F042209F00070080A
:1003820083169F051F179F1783124108F000F00D77
:100392007010F00D7010F00D701070089F041F1493
:1003A200EC201F151F1DD7290000D3291F101E087E
:1003B200F100F00183161E08F0040030F104080079
:1003C20083120313C301410884000008C2004208DB
:1003D200003A0319F6294208C400E220C30A43087E
:0C03E200410784000008C200E829080060
:1003EE002222831603138801860183120812193004
:1003FE008316990018150621C0308B008C01203011
:06040E0083168C00092A90
:1004440022308400133083120313F0000F30B50000
:080454000230B600FA20080096
:02041E000F3499
:10042000573465346C3463346F346D346534203440
:100430006F346E34203443345034453434343534DE
:04044000343400341C
:02400E004A2F37
:00000001FF
