:02000000832853
:100006003028FC3083120313F000F101822860309F
:10001600F0000030F1008228DA30F000F101822889
:10002600F230F000F10182286630F0000030F10075
:100036008228B630F000F1018228BE30F000F101CE
:100046008228E030F000F1018228FE30F000F10154
:100056008228F630F000F101822883120313003063
:100066002506031D3828003024060319042800300D
:100076002506031D40280130240603190A280030EE
:100086002506031D48280230240603190F280030D0
:100096002506031D502803302406031913280030B3
:1000A6002506031D58280430240603191728003096
:1000B6002506031D60280530240603191C28003078
:1000C6002506031D6828063024060319202800305B
:1000D6002506031D7028073024060319242800303E
:1000E6002506031D78280830240603192828003021
:1000F6002506031D80280930240603192C2808002C
:100106008316031386018801831208128816A2013A
:10011600A30180302306F00080307002031D95286D
:100126000A3022020318B2282208A4002308A500D8
:10013600032083120313700886000630FB00133079
:10014600FC00AD30FD00FD0BA628FC0BA628FB0B22
:10015600A62800000000A20A0319A30A8C280B3067
:10016600FB002630FC005D30FD00FD0BB828FC0BC3
:0E017600B828FB0BB828000000008A28C1281A
:02400E004A2F37
:00000001FF
