:020000002E28A8
:1000060083120313FB01FA01F9018030F800F10CA9
:10001600F00C031C17287408F90775080318750FE8
:10002600FA070318FB0A0310F01F1F287408FA07C3
:1000360075080318750FFB07FB0CFA0CF90CF80C86
:10004600031C0A287B08F3007A08F2007908F100FD
:060056007808F00008002C
:10005C00831603130714871007110E3088008813BA
:10006C0083128817831686010E3083120805A200AE
:10007C00A3010030A3050030A300220886008710DE
:10008C0007150130A4000030A5000330F00000304B
:10009C00F1002208F4002308F50003202508710262
:1000AC00031D5A2824087002031C662807185F28B1
:1000BC005C28071C62285F28A40A0319A50A4B2890
:1000CC0087141A30FB005E30FC006E30FD00FD0B17
:1000DC006D28FC0B6D28FB0B6D2800003A28752849
:02400E004A2F37
:00000001FF
