:02000000852950
:0400060000000800EE
:10000A00083083120313FC002330FD00FD0B0B287C
:06001A00FC0B0B2808009E
:10002000103083120313FD00FD0B1428000008009C
:1000300083120313BA1B1E2886131F2886173A1B28
:100040002328061324280617BA1A282886122928D6
:1000500086163A1A2D2806122E2806162F18322830
:10006000861433288610861503208611BA193A287B
:1000700086133B2886173A193F280613402806178F
:10008000BA1844288612452886163A1849280612B6
:100090004A2806162F184E2886144F2886108615D3
:1000A000032086112F1C56280520572810200800F1
:0E00B000073083120313FD00FD0B5C280800CF
:1000BE00831203132F103908BA0018202F140800CA
:0E00CE00831203132E088A002D0882000800FA
:1000DC0083120313F8010830FC00700DF80D74083E
:1000EC00F80203187B28F8070310F00DFC0B73289B
:0200FC000800FA
:1000FE0083120313B7010330370203188D28370814
:10010E003607840020308000B70A82283708360769
:10011E0084008001B70337083607B8000A30F400B0
:10012E003508F0006E207808F0003030F0073808FF
:10013E008400700880000A30F4003508F0006E204C
:10014E007008B5007008003A031DAE28B028B7033A
:04015E0092280800DB
:10016200C328803083120313B500D628C030B500EF
:10017200D6289430B500D628D430B500D6288030A1
:10018200B500D628831203133508013A0319B228A1
:100192003508023A0319B7283508033A0319BA2871
:1001A2003508043A0319BD28C0283603F000350883
:1001B200F0077008B5007008BA0018202F10B801B7
:1001C20038083707840000080319EF283808370772
:1001D20084000008B9005F20B80AE1282F14080043
:1001E200831203139F01C0309F042C09F000700892
:1001F20083169F051F179F1783123508F000F00D15
:100202007010F00D7010F00D701070089F041F1424
:1002120058201F151F1D0F2900000B291F101E0833
:10022200F100F00183161E08F0040030F10408000A
:10023200831603138611861006128612061386137E
:100242008312861186108613061386120612052063
:100252000520052086160616861503208611052020
:100262008615032086110520861503208611052098
:100272000612861503208611052086150320861195
:100282008612861786150320861105208613061608
:100292008615032086110612861503208611052075
:1002A2008615032086110616861503208611052061
:1002B200061286150320861186170617861606165D
:0C02C20086150320861105202F1408006B
:1002CE0067208A110A128000840AAD0A0319AE0A49
:0802DE00F003031D672908006D
:1002E60083120313B6013608350784000008031984
:1002F60084293608350784000008B9005F20B60A4D
:04030600762908004C
:10030A00D2218316031388138601831288171921B1
:10031A000130B500F1207008F2007108F300F30C07
:10032A00F20CF31372088312B0007308B10072085A
:10033A0086000330FB008A30FC005530FD00FD0BBF
:10034A00A429FC0BA429FB0BA429000000000130FE
:10035A00B5000130B6002430B700B1203008B5002E
:10036A003230B6007F203230B50073212030B5001C
:04037A007321BE2904
:1003A400203084000D3083120313F000C430AD00FC
:0803B4000130AE0067210800D2
:08038800203443342E3400340C
:10039000743465346D34703420343D34203400348A
:0203A0000F3418
:02400E004A2F37
:00000001FF
