:02000000BD2819
:0E0006008312031322088A00210882000800DA
:0E001400073083120313FD00FD0B0E280800B9
:1000220083120313FB01FA01F9018030F800F10C8D
:10003200F00C031C25287408F90775080318750FBE
:10004200FA070318FB0A0310F01F2D287408FA0799
:1000520075080318750FFB07FB0CFA0CF90CF80C6A
:10006200031C18287B08F3007A08F2007908F100D3
:060072007808F000080010
:1000780003208A110A128000840AA10A0319A20A1D
:08008800F003031D3C280800F1
:10009000831203139F01C0309F042009F0007008F1
:1000A00083169F051F179F1783122708F000F00D76
:1000B0007010F00D7010F00D701070089F041F1478
:1000C0000A201F151F1D6628000062281F101E0829
:1000D000F100F00183161E08F0040030F10408005E
:1000E00083120313F801F9011030FC00710DF80DB3
:1000F000F90D7408F8027508031C750FF90203184E
:1001000088287408F80775080318750FF907031095
:0A011000F00DF10DFC0B762808003D
:10011A00831203132708473A031D9728F630F10084
:10012A00F2019B281C30F1000030F2001E30F3006F
:10013A000030F40071088600081288160D30FC00A1
:10014A00FB30FD00FD0BA728FC0BA72800000000D0
:10015A0073088600081688120D30FC00FB30FD007B
:10016A00FD0BB528FC0BB528000000009F280800ED
:10017A001C2183160313881407110812881286019A
:10018A008312881C15290230A70048200530F40084
:10019A000030F5001120FF30F4000330F500702024
:1001AA007008A3007108A4000330A7004820053096
:1001BA00F4000030F5001120FF30F4000330F500A0
:1001CA0070207008A5007108A60024087102031D9A
:1001DA00F028230870020318F6284730A7008D205C
:1001EA00152926082402031DFC28250823020318C2
:1001FA0002294C30A7008D20152908128812860181
:10020A0007151030FB003930FC000D30FD00FD0BE6
:10021A000C29FC0B0C29FB0B0C2900000000071110
:02022A00152994
:1002380020308400013083120313F0001B30A1002A
:080248000130A2003C20080077
:020236000F3483
:02400E004A2F37
:00000001FF
