:02000000DA28FC
:100006003028FC3083120313F000F101822860309F
:10001600F0000030F1008228DA30F000F101822889
:10002600F230F000F10182286630F0000030F10075
:100036008228B630F000F1018228BE30F000F101CE
:100046008228E030F000F1018228FE30F000F10154
:100056008228F630F000F101822883120313003063
:100066002D06031D382800302C06031904280030FD
:100076002D06031D402801302C0603190A280030DE
:100086002D06031D482802302C0603190F280030C0
:100096002D06031D502803302C06031913280030A3
:1000A6002D06031D582804302C0603191728003086
:1000B6002D06031D602805302C0603191C28003068
:1000C6002D06031D682806302C060319202800304B
:1000D6002D06031D702807302C060319242800302E
:1000E6002D06031D782808302C0603192828003011
:1000F6002D06031D802809302C0603192C2808001C
:1001060083120313F801F9011030FC00710DF80D8C
:10011600F90D7408F8027508031C750FF902031827
:100126009B287408F80775080318750FF90703105C
:0A013600F00DF10DFC0B8928080004
:10014000643083120313AA000030AB002A082B048A
:100150000319D9282808AC002908AD000320831210
:10016000031370088600081688120D30FC00FB305F
:10017000FD00FD0BB928FC0BB92800000000260883
:10018000AC002708AD00032083120313700886001B
:10019000081288160D30FC00FB30FD00FD0BCE2848
:1001A000FC0BCE28000000000130AA02031CAB03A8
:0401B000A628080075
:1001B400623083120313A2000030A3003330A40082
:1001C4000030A5008316860188010A30F40000304F
:1001D400F50083122208F0002308F1008320700840
:1001E400A6007108A7000A30F4000030F5002208C8
:1001F400F0002308F10083207808F0007908F1006A
:100204007008A8007108A900A0208230FC00DD302D
:10021400FD00FD0B0B29FC0B0B29000000000A302C
:10022400F4000030F5002408F0002508F1008320D4
:100234007008A6007108A7000A30F4000030F50029
:100244002408F0002508F10083207808F0007908DC
:10025400F1007008A8007108A900A0208230FC00F9
:10026400DD30FD00FD0B3429FC0B342900000000B7
:04027400E7283B2913
:02400E004A2F37
:00000001FF
