:020000008D2849
:0E0006008312031322088A00210882000800DA
:0E001400073083120313FD00FD0B0E280800B9
:1000220083120313FB01FA01F9018030F800F10C8D
:10003200F00C031C25287408F90775080318750FBE
:10004200FA070318FB0A0310F01F2D287408FA0799
:1000520075080318750FFB07FB0CFA0CF90CF80C6A
:10006200031C18287B08F3007A08F2007908F100D3
:060072007808F000080010
:10007800831203139F01C0309F042009F000700809
:1000880083169F051F179F1783122508F000F00D90
:100098007010F00D7010F00D701070089F041F1490
:1000A8000A201F151F1D5A28000056281F101E0859
:1000B800F100F00183161E08F0040030F104080076
:1000C80003208A110A128000840AA10A0319A20ACD
:0800D800F003031D6428080079
:1000E00083120313F801F9011030FC00710DF80DB3
:1000F000F90D7408F8027508031C750FF90203184E
:1001000088287408F80775080318750FF907031095
:0A011000F00DF10DFC0B762808003D
:10011A00FA20831603138710071102308312A500F1
:10012A003C200530F4000030F5001120FF30F400C7
:10013A000330F50070207108003C031DA6287008E2
:10014A00023C031CCD280130A3000030A40024087F
:10015A00003C031DB2282308413C031CBA2807119E
:10016A008714A30A0319A40AAC284130A30000305B
:10017A00A4002408003C031DC4282308643C031C73
:10018A00CC2807118710A30A0319A40ABE28F1284C
:10019A000130A3000030A4002408003C031DD72826
:1001AA002308553C031CDF2807118714A30A0319E7
:1001BA00A40AD1285530A3000030A4002408003C2A
:1001CA00031DE9282308643C031CF1280711871042
:0C01DA00A30A0319A40AE3289228F228C3
:1001F40020308400013083120313F000F830A10092
:080204000030A2006420080094
:0201F0000F34CA
:02400E004A2F37
:00000001FF
