:020000002729AE
:10000800FF00030E8301D2000A08D3008A0170089A
:10001800A0000408A1008C1E57289C207008D0005E
:10002800D10100305106031D1B2831305006031D35
:1000380035283E30D40086200230D400D420053044
:10004800F4000030F500FC20FF30F4000330F50028
:10005800B7207008CC007108CD00700886008C129B
:10006800572800305106031D3B2832305006031D27
:1000780053282230D40086200130D400D4207008C0
:10008800F2007108F300F30CF20CF31372088312F8
:10009800CC007308CD00720886008C1257282F30C8
:1000A800D400862086012008F00021088400530827
:0C00B8008A00520E8300FF0E7F0E09002C
:1000C40083160313981868280000622883125708BF
:0400D4009900080087
:0E00D800073083120313FD00FD0B7028080093
:0E00E600831203134F088A004E0882000800A0
:1000F40073208A110A128000840ACE0A0319CF0AD7
:08010400F003031D7A28080036
:10010C0083120313D601540884000008D500550847
:10011C00003A03199B285508D7006220D60A5608C6
:0C012C00540784000008D5008D2808004E
:10013800831203131A08F100981CA4281812181621
:060148007108F000080040
:10014E008316031398169030831298008316871720
:10015E00071383128C1EB6281A08F000B028080068
:10016E0083120313F801F9011030FC00710DF80D24
:10017E00F90D7408F8027508031C750FF9020318BF
:10018E00CF287408F80775080318750FF9070310C0
:0A019E00F00DF10DFC0BBD28080068
:1001A800831203139F01C0309F044B09F0007008AD
:1001B80083169F051F179F1783125408F000F00D30
:1001C8007010F00D7010F00D701070089F041F145F
:1001D8006C201F151F1DF2280000EE281F101E0896
:1001E800F100F00183161E08F0040030F104080045
:1001F80083120313FB01FA01F9018030F800F10CB6
:10020800F00C031C10297408F90775080318750FFA
:10021800FA070318FB0A0310F01F18297408FA07D5
:1002280075080318750FFB07FB0CFA0CF90CF80C92
:10023800031C03297B08F3007A08F2007908F1000F
:060248007808F000080038
:10024E006C21831603138801831288178316860187
:10025E00193099001815A720C0308B002030831656
:0A026E008C0083128C013A293B2911
:1002D800223084002A3083120313F0004130CE000C
:0802E8000130CF007A2008006C
:100282003234203469347334203470347234653437
:0A02920073347334653464340034AF
:10029C0049346E34763461346C34693464342034CB
:0E02AC004F347034743469346F346E3400345F
:1002BA003134203469347334203470347234653400
:0A02CA007334733465346434003477
:0202D4000F34E5
:02400E004A2F37
:00000001FF
