:020000008D2849
:0E0006008312031322088A00210882000800DA
:0E001400073083120313FD00FD0B0E280800B9
:1000220083120313FB01FA01F9018030F800F10C8D
:10003200F00C031C25287408F90775080318750FBE
:10004200FA070318FB0A0310F01F2D287408FA0799
:1000520075080318750FFB07FB0CFA0CF90CF80C6A
:10006200031C18287B08F3007A08F2007908F100D3
:060072007808F000080010
:10007800831203139F01C0309F042009F000700809
:1000880083169F051F179F1783122508F000F00D90
:100098007010F00D7010F00D701070089F041F1490
:1000A8000A201F151F1D5A28000056281F101E0859
:1000B800F100F00183161E08F0040030F104080076
:1000C80003208A110A128000840AA10A0319A20ACD
:0800D800F003031D6428080079
:1000E00083120313F801F9011030FC00710DF80DB3
:1000F000F90D7408F8027508031C750FF90203184E
:1001000088287408F80775080318750FF907031095
:0A011000F00DF10DFC0B762808003D
:10011A00082183160313871007110714033083126B
:10012A00A5003C200530F4000030F5001120FF3016
:10013A00F4000330F50070207008A3007108A400D1
:10014A0000307102031DAB28023070020318CD285B
:10015A00871407111030FB003930FC000D30FD0008
:10016A00FD0BB528FC0BB528FB0BB52800000000D9
:10017A00871007111030FB003930FC000D30FD00EC
:10018A00FD0BC528FC0BC528FB0BC5280000000089
:10019A0000302406031DD32803302306031DD72865
:1001AA00871007112408003C031DDD282308033C9F
:1001BA000318FF28871007150B30FB002630FC00B8
:1001CA005D30FD00FD0BE728FC0BE728FB0BE72859
:1001DA0000000000871007110B30FB002630FC00DE
:1001EA005D30FD00FD0BF728FC0BF728FB0BF72809
:0801FA00000000009328002919
:1002100020308400013083120313F0000630A10067
:080220000130A2006420080077
:02020C000F34AD
:02400E004A2F37
:00000001FF
