:02000000562880
:1000060083120313FB01FA01F9018030F800F10CA9
:10001600F00C031C17287408F90775080318750FE8
:10002600FA070318FB0A0310F01F1F287408FA07C3
:1000360075080318750FFB07FB0CFA0CF90CF80C86
:10004600031C0A287B08F3007A08F2007908F100FD
:060056007808F00008002C
:10005C00013083120313A8000030A9000130A60060
:10006C000030A70027082502031D3E28260824027D
:10007C00031C51282808F0002908F1002608F40078
:10008C002708F50003207008A8007108A900A60A2B
:10009C000319A70A38282808F0002908F1000800DD
:1000AC000730831603138800860107118312880119
:1000BC00881707300805A200A3010030A305003003
:1000CC00A3000530F1002208F00071080319722812
:1000DC00F00D7010FF3E6C28700886000630FB0097
:1000EC001330FC00AD30FD00FD0B7A28FC0B7A2898
:1000FC00FB0B7A28000000002308003C031D882815
:10010C002208053C031C9F282208A4002308A500F4
:10011C002E20700886001A30FB005E30FC006E301A
:10012C00FD00FD0B9728FC0B9728FB0B9728000074
:10013C00AD2807150530FB000F30FC00F130FD0039
:10014C00FD0BA628FC0BA628FB0BA62807115F2885
:02015C00AE28CB
:02400E004A2F37
:00000001FF
