:020000004B298A
:0E0006008312031322088A00210882000800DA
:100014003728FC3083120313F000F1018928603083
:10002400F0000030F1008928DA30F000F10189286D
:10003400F230F000F10189286630F0000030F10060
:100044008928B630F000F1018928BE30F000F101B2
:100054008928E030F000F1018928FE30F000F10138
:100064008928F630F000F101892883120313003047
:100074002E06031D3F2800302D0603190B280030DF
:100084002E06031D472801302D06031911280030C0
:100094002E06031D4F2802302D06031916280030A2
:1000A4002E06031D572803302D0603191A28003085
:1000B4002E06031D5F2804302D0603191E28003068
:1000C4002E06031D672805302D060319232800304A
:1000D4002E06031D6F2806302D060319272800302D
:1000E4002E06031D772807302D0603192B28003010
:1000F4002E06031D7F2808302D0603192F280030F3
:100104002E06031D872809302D06031933280800FD
:0E011400073083120313FD00FD0B8E28080038
:1001220083120313F801F9011030FC00710DF80D70
:10013200F90D7408F8027508031C750FF90203180B
:10014200A9287408F80775080318750FF907031032
:0A015200F00DF10DFC0B97280800DA
:10015C0003208A110A128000840AA10A0319A20A38
:08016C00F003031DAE2808009A
:10017400831203139F01C0309F042009F00070080C
:1001840083169F051F179F1783122708F000F00D91
:100194007010F00D7010F00D701070089F041F1493
:1001A4008A201F151F1DD8280000D4281F101E08E0
:1001B400F100F00183161E08F0040030F104080079
:1001C40083120313FB01FA01F9018030F800F10CEA
:1001D400F00C031CF6287408F90775080318750F4A
:1001E400FA070318FB0A0310F01FFE287408FA0725
:1001F40075080318750FFB07FB0CFA0CF90CF80CC7
:10020400031CE9287B08F3007A08F2007908F1005E
:060214007808F00008006C
:10021A0083120313AB01AC0180302C06F00080304E
:10022A007002031D1A29C8302B0203184A2908161E
:10023A0088122908AD002A08AE000A208312031387
:10024A00700886000D30FC00FB30FD00FD0B2B29E9
:10025A00FC0B2B2900000000081288162708AD00A5
:10026A002808AE000A2083120313700886000D3096
:10027A00FC00FB30FD00FD0B4029FC0B402900006F
:0C028A000000AB0A0319AC0A112908009F
:10029600B421831603138814081288128601831268
:1002A600881884290130A700BA2070088312A50097
:1002B6007108A600A60CA50CA6132508A3002608FF
:1002C600A4000A30F4000030F5002508F0002608E6
:1002D600F10091207008A7007108A8000A30F40008
:1002E6000030F5002508F0002608F1009120780876
:1002F600F0007908F1007008A9007108AA000D2124
:10030600AB290230A700BA200530F4000030F50012
:10031600E220FF30F4000330F50091207008A300BE
:100326007108A4000330A700BA200530F40000309D
:10033600F500E220FF30F4000330F5009120230899
:10034600A7002408A8007008A9007108AA000D21BA
:040356005229AC2953
:1003680020308400013083120313F000B230A10062
:080378000130A200AE200800D4
:020364000F3454
:02400E004A2F37
:00000001FF
